:020000040000FA
:100000000C9462000C948A000C948A000C948A0070
:100010000C948A000C948A000C948A000C948A0038
:100020000C948A000C948A000C948A000C948A0028
:100030000C948A000C948A000C948A000C948A0018
:100040000C94F6060C948A000C94C4060C949E063C
:100050000C948A000C948A000C948A000C948A00F8
:100060000C948A000C948A000000000024002700F1
:100070002A0000000000250028002B0000000008D6
:10008000000201000003040700000000000000005F
:1000900000000000230026002900040404040404D6
:1000A0000404020202020202030303030303010227
:1000B00004081020408001020408102001020408F6
:1000C0001020850711241FBECFEFD8E0DEBFCDBFC3
:1000D00011E0A0E0B1E0EAE6FCE102C005900D927B
:1000E000A439B107D9F722E0A4E9B1E001C01D921B
:1000F000A737B207E1F710E0C2E6D0E004C02197CD
:10010000FE010E94190EC136D107C9F70E94F007FF
:100110000C94330E0C940000CF92DF92EF92FF927A
:10012000CF93DF93B0915302A0E08111AB2F809168
:10013000540290E0880F991FAC0140575F4FC09068
:100140005902D0905A02E0905B02F0905C0230E0DD
:1001500020E0FA01C591D491E881B90190E080E0F6
:10016000EB23EA130AC02F5F3F4F6C157D058E0508
:100170009F0578F36FEF7FEFCB01DF91CF91FF9079
:10018000EF90DF90CF900895DC01ED91FC9101900C
:10019000F081E02D0994AF92BF92CF92DF92EF925F
:1001A000FF920F931F93CF93DF936C017B018B0121
:1001B000040F151FEB015E01AE18BF08C017D10771
:1001C00059F06991D601ED91FC910190F081E02DFB
:1001D000C6010995892B79F7C501DF91CF911F9150
:1001E0000F91FF90EF90DF90CF90BF90AF90089568
:1001F000FC01538D448D252F30E0842F90E0821B2D
:10020000930B541710F0CF96089501970895FC01B1
:10021000918D828D981761F0A28DAE0FBF2FB11D09
:100220005D968C91928D9F5F9F73928F90E0089561
:100230008FEF9FEF0895FC01918D828D981731F01B
:10024000828DE80FF11D858D90E008958FEF9FEF6F
:100250000895FC01918D228D892F90E0805C9F4F45
:10026000821B91098F73992708958FEA91E00E946C
:10027000290121E0892B09F420E0822F089580E0F4
:1002800090E0892B29F00E94350181110C94000027
:100290000895FC01A48DA80FB92FB11DA35ABF4F1B
:1002A0002C91848D90E001968F739927848FA68975
:1002B000B7892C93A089B1898C91837080648C93C9
:1002C000938D848D981306C00288F389E02D808178
:1002D0008F7D80830895EF92FF920F931F93CF93AA
:1002E000DF93EC0181E0888F9B8D8C8D98131AC071
:1002F000E889F989808185FF15C09FB7F894EE8958
:10030000FF896083E889F9898081837080648083B4
:100310009FBF81E090E0DF91CF911F910F91FF90FF
:10032000EF900895F62E0B8D10E00F5F1F4F0F73A7
:100330001127E02E8C8D8E110CC00FB607FCFACF62
:10034000E889F989808185FFF5CFCE010E944901B6
:10035000F1CFEB8DEC0FFD2FF11DE35AFF4FF08233
:100360009FB7F8940B8FEA89FB8980818062CFCF99
:10037000CF93DF93EC01888D8823B9F0AA89BB89DC
:10038000E889F9898C9185FD03C0808186FD0DC0C7
:100390000FB607FCF7CF8C9185FFF2CF808185FFE8
:1003A000EDCFCE010E944901E9CFDF91CF910895B1
:1003B00090E0FC01E458FF4F2491FC01E255FF4F0F
:1003C0003491FC01E656FF4FE491EE23C9F022235D
:1003D00039F0233001F1A8F4213019F1223029F14C
:1003E000F0E0EE0FFF1FEE58FF4FA591B4918FB7CD
:1003F000F894EC91611126C030953E233C938FBF59
:1004000008952730A9F02830C9F0243049F78091A9
:1004100080008F7D03C0809180008F778093800063
:10042000DFCF84B58F7784BDDBCF84B58F7DFBCFE5
:100430008091B0008F778093B000D2CF8091B000D0
:100440008F7DF9CF3E2BDACFCF93DF9390E0FC0185
:10045000E255FF4F249186569F4FFC0184918823DB
:10046000C9F090E0880F991FFC01E859FF4FA59152
:10047000B491FC01EE58FF4FC591D49161110DC0AC
:100480009FB7F8948C91209582238C9388812823A0
:1004900028839FBFDF91CF910895623051F49FB7B9
:1004A000F8943C91822F809583238C93E8812E2BA6
:1004B000EFCF8FB7F894EC912E2B2C938FBFEACF10
:1004C0003FB7F8948091990190919A01A0919B0176
:1004D000B0919C0126B5A89B05C02F3F19F001964D
:1004E000A11DB11D3FBFBA2FA92F982F8827BC018E
:1004F000CD01620F711D811D911D42E0660F771FB6
:10050000881F991F4A95D1F708958F929F92AF92B5
:10051000BF92CF92DF92EF92FF924B015C010E945B
:1005200060026B017C010E9460026C197D098E09DA
:100530009F09683E734081059105A8F321E0821A66
:100540009108A108B10888EEC80E83E0D81EE11C0E
:10055000F11C81149104A104B10429F7FF90EF90DC
:10056000DF90CF90BF90AF909F908F9008952FB75E
:10057000F894609195017091960180919701909106
:1005800098012FBF0895CF92DF92EF92FF920F93C1
:100590001F93CF93DF93CDB7DEB7C054D1400FB6D2
:1005A000F894DEBF0FBECDBF0E94B7020091550286
:1005B0001091560220915702309158026B017C0134
:1005C000C01AD10AE20AF30A97018601003D1740DA
:1005D0002105310590F480915D02C05CDE4F0FB6BD
:1005E000F894DEBF0FBECDBFDF91CF911F910F9169
:1005F000FF90EF90DF90CF90089560935502709335
:100600005602809357029093580210925002109213
:100610004F0210924E0210924D0210924C0262E074
:10062000809151020E94240261E070E080E090E03D
:100630000E94850261E0809151020E94240260E0E4
:10064000809151020E94D8018091520285518230DE
:1006500020F58BE291E10197F1F762E08091510280
:100660000E94240280915E0290E08230910538F071
:10067000880F991F880F991F05970197F1F7F89434
:1006800080E00E948C006F3F7F4F8F4F9F4F61F43F
:1006900010925D02789480E0A0CF64E170E080E089
:1006A00090E00E948502D9CF81E00E948C006F3FCC
:1006B0007F4F8F4F9F4F61F38E010F5F1F4F6E0172
:1006C0002FEBC21A2EEFD20A780180E00E948C0034
:1006D000F701608371838283938381E00E948C00A1
:1006E000F7016483758386839783F8E0EF0EF11C2E
:1006F000EC14FD0451F7789430E020E0F801C0805C
:10070000D180E280F3804481558166817781FFEF5B
:10071000CF16DF06EF06FF0631F04F3F8FEF580789
:100720006807780719F410925D02B5CFF90183E0EC
:10073000F595E7958A95E1F7E45BFD4F8081880F99
:10074000C416D506E606F70610F180832F5F3F4FEB
:10075000085F1F4F2832310589F6409150022091E1
:100760004C0280914D02280F3327331F80914E0297
:10077000280F311D80914F02820F932F911D9927D1
:100780004817190681F681E080935D0226CF8160CB
:10079000DCCF089590E080E00895CF93DF93EC01E3
:1007A00060E08E810E94D80161E08E810E94D801B4
:1007B00060E08E810E94D8018BE891E00197F1F70B
:1007C000DF91CF910895CF92DF92EF92FF920F9336
:1007D0001F93CF93DF936C017C0187E0E80EF11C3F
:1007E000D0E0C0E0062F10E0B8010C2E02C07595D5
:1007F00067950A94E2F76170F70181917F010E9489
:10080000D8012196C430D10579F7C601DF91CF9187
:100810001F910F91FF90EF90DF90CF900C94CD033C
:10082000CF92DF92EF92FF920F931F93CF93DF93BC
:10083000EC01F62E642F8C810E94D8018D818F3FB0
:1008400019F060E00E94D8010F2D10E08F8584FF21
:1008500025C06E0187E0C80ED11CF12CE12CB80137
:100860000E2C02C0759567950A94E2F76170F60147
:1008700081916F010E94D801FFEFEF1AFF0A88E013
:10088000E816F10461F7CE01DF91CF911F910F912E
:10089000FF90EF90DF90CF900C94CD03B80184E0EF
:1008A000759567958A95E1F7CE010E94E3036F2D58
:1008B000CE01DF91CF911F910F91FF90EF90DF90CC
:1008C000CF900C94E30340E0682F8FE592E00C9406
:1008D000100481E00E9463048BE39FE10197F1F72C
:1008E0000895CF93DF93823029F490916E0298603F
:1008F00090936E02809372021092730280E4809350
:10090000740280E18093750280E58093760261E055
:10091000809163020E942402809164028F3F19F04B
:1009200061E00E94240261E0809165020E9424023D
:10093000CFE5D2E09E012F55324080916E0284FDBA
:100940000BC084E090E021962817390744F461E059
:100950008E810E942402EECF88E090E0F4CF8BE3FA
:100960009DE00197F1F760E0809163020E94D80159
:1009700060E0809165020E94D801809164028F3FFF
:1009800019F060E00E94D80180916E0284FD34C0AD
:1009900063E08FE592E00E94E303CBE4D6E4CE016E
:1009A0000197F1F763E08FE592E00E94E30321975E
:1009B000F1F763E08FE592E00E94E30383E592E0C4
:1009C0000197F1F762E08FE592E00E94E3038091E6
:1009D0006E0280620E94630484E080936F028CE068
:1009E0000E9463040E94690482E08093700286E0A2
:1009F000DF91CF910C94630480620E9463048BE4C6
:100A000096E40197F1F780916E0280620E94630480
:100A100083E592E00197F1F780916E0280620E9477
:100A20006304D5CF90917202891710F08FEF890F70
:100A3000E82FF0E0E15AFD4F848980680C9463044C
:100A400041E00E94100481E090E00895FB010190D4
:100A50000020E9F73197AF01461B570BDC01ED9100
:100A6000FC910280F381E02D09948F929F92AF92C6
:100A7000BF92EF92FF920F931F93CF93DF93CDB767
:100A8000DEB7A1970FB6F894DEBF0FBECDBF7C01D5
:100A9000FA01CB0119A2223008F42AE08E010F5D81
:100AA0001F4F822E912CB12CA12CBF01A5019401C6
:100AB0000E94F70DF901CA016A300CF5605DD8019A
:100AC0006E938D01232B242B252B79F790E080E06A
:100AD000109721F0BD01C7010E942605A1960FB60F
:100AE000F894DEBF0FBECDBFDF91CF911F910F9164
:100AF000FF90EF90BF90AF909F908F900895695CAA
:100B0000DECFCF92DF92EF92FF920F931F93CF939E
:100B1000DF9377FF1DC06A017B01EC016DE20E944B
:100B2000C4008C0144275527BA014C195D096E0990
:100B30007F092AE0CE010E943505800F911FDF91C9
:100B4000CF911F910F91FF90EF90DF90CF9008957C
:100B50002AE0DF91CF911F910F91FF90EF90DF90EE
:100B6000CF900C943505BC018FE592E00C942605DE
:100B70002F923F924F925F926F927F928F929F92AD
:100B8000AF92BF92CF92DF92EF92FF921F93CF93DB
:100B9000DF93EC016A017B01722EAB019601CB0160
:100BA000B6010E94DE0D6EE171E0811126C04601A2
:100BB0005701E894B7F82FEF3FEF4FE75FE7C50124
:100BC000B4010E94DE0D81110CC02FEF3FEF4FE703
:100BD0005FE7C501B4010E940D0C62E271E01816D6
:100BE00064F02FEF3FEF4FE75FE4C701B6010E94CB
:100BF0006C0D1816B4F466E271E0CE01DF91CF916E
:100C00001F91FF90EF90DF90CF90BF90AF909F909B
:100C10008F907F906F905F904F903F902F900C94AB
:100C200026052FEF3FEF4FE75FECC701B6010E94AB
:100C30000D0C87FDE0CF20E030E0A901C701B6012F
:100C40000E940D0C312C212C87FF09C06DE2CE01D2
:100C50000E94C4001C01F7FAF094F7F8F09410E039
:100C600060E070E080E09FE3711641F020E030E04A
:100C700040E251E40E94120C1F5FF6CFA7019601DB
:100C80000E94A10B2B013C010E948B0C4B015C01CB
:100C90002AE0BC01A401CE010E9435057C01E20CD2
:100CA000F31C1123C1F1C501B4010E94BA0C9B01D0
:100CB000AC01C301B2010E94A00B4B015C016EE2CA
:100CC000CE010E94C400E80EF91E115020F120E070
:100CD00030E040E251E4C501B4010E94710D2B01E6
:100CE0003C010E948B0C4B01B12CA12C2AE0B501D8
:100CF000A401CE010E943505E80EF91EC501B4011C
:100D00000E94BA0C9B01AC01C301B2010E94A00B6E
:100D10004B015C01DACFC701DF91CF911F91FF90AA
:100D2000EF90DF90CF90BF90AF909F908F907F908B
:100D30006F905F904F903F902F9008951F920F9269
:100D40000FB60F9211242F933F934F935F936F939E
:100D50007F938F939F93AF93BF93EF93FF938FEA0C
:100D600091E00E944901FF91EF91BF91AF919F9156
:100D70008F917F916F915F914F913F912F910F9044
:100D80000FBE0F901F9018951F920F920FB60F92E3
:100D900011242F938F939F93EF93FF93E091BF01C3
:100DA000F091C0018081E091C501F091C60182FD02
:100DB0001BC090818091C8018F5F8F732091C90102
:100DC000821741F0E091C801F0E0E155FE4F958FA8
:100DD0008093C801FF91EF919F918F912F910F9078
:100DE0000FBE0F901F9018958081F4CF1F920F9225
:100DF0000FB60F9211242F933F938F939F93AF932E
:100E0000BF938091950190919601A0919701B09127
:100E100098013091940123E0230F2D3758F5019666
:100E2000A11DB11D2093940180939501909396018B
:100E3000A0939701B09398018091990190919A01A4
:100E4000A0919B01B0919C010196A11DB11D8093C1
:100E5000990190939A01A0939B01B0939C01BF913B
:100E6000AF919F918F913F912F910F900FBE0F9057
:100E70001F90189526E8230F0296A11DB11DD2CF11
:100E8000CF92DF92EF92FF920F931F93E82FF92FEB
:100E900005C0015011092109310961F190819623A2
:100EA0009417B9F305C0015011092109310911F155
:100EB000908196239413F7CFC12CD12CE12CF12CE7
:100EC0000AC08FEFC81AD80AE80AF80A0C151D05DF
:100ED0002E053F0579F080818623841791F36C2DD0
:100EE0007D2D8E2D9F2D1F910F91FF90EF90DF9004
:100EF000CF90089560E070E080E090E01F910F9146
:100F0000FF90EF90DF90CF900895EFEAF1E0138229
:100F1000128288EE93E0A0E0B0E084839583A683FC
:100F2000B78384E091E09183808385EC90E095879E
:100F3000848784EC90E09787868780EC90E0918BA3
:100F4000808B81EC90E0938B828B82EC90E0958B90
:100F5000848B86EC90E0978B868B118E128E138E8D
:100F6000148EEFE5F2E01382128286E191E0918324
:100F7000808383E084838FEF858384E0868385E0AC
:100F8000878386E0808787E0818788E08287138671
:100F9000148615861686178681E00E947104ACE4DB
:100FA000B2E082E015968C9315978BE016968C93A1
:100FB0001697E0EBF0E0E4911796EC931797ECE9C5
:100FC000F0E0E4911896EC93189740E85EE360E057
:100FD00070E01D964D935D936D937C9350970895AB
:100FE000789484B5826084BD84B5816084BD85B504
:100FF000826085BD85B5816085BD80916E00816010
:1010000080936E00109281008091810082608093B5
:1010100081008091810081608093810080918000B7
:101020008160809380008091B10084608093B100E2
:101030008091B00081608093B00080917A008460DC
:1010400080937A0080917A00826080937A00809108
:101050007A00816080937A0080917A008068809322
:101060007A001092C100E091BF01F091C00182E0CE
:101070008083E091BB01F091BC011082E091BD0141
:10108000F091BE018FEC80831092C701E091C30103
:10109000F091C40186E08083E091C101F091C2012A
:1010A000808180618083E091C101F091C2018081E3
:1010B00088608083E091C101F091C20180818068E5
:1010C0008083E091C101F091C20180818F7D808396
:1010D00061E089E00E94240261E08AE00E9424022B
:1010E00061E08BE00E94240261E08CE00E94240217
:1010F00061E082E10E94240260E083E10E94240218
:1011000062E0809151020E9424020E94B702605D59
:10111000774081099109609355027093560280933C
:1011200057029093580287E380935E0282E00E9408
:1011300071040E94690480E00E9412058AE291E035
:101140000E94B30581E00E94120585E391E00E94B0
:10115000B30568EC70E080E090E00E948502CFE08B
:10116000D0E053E2A52EB12C6AE0862E912C70E0DF
:10117000272E70E0372E0E94B702C0909F01D090BA
:10118000A001E090A101F090A2019B01AC012C19FB
:101190003D094E095F0969017A0138EBC3163BE04E
:1011A000D306E104F10408F4CDC060939F0170936D
:1011B000A0018093A1019093A20160E082E10E94CE
:1011C000D801CE010197F1F761E082E10E94D801D8
:1011D000C5010197F1F760E082E10E94D80160E06B
:1011E00083E10E942402E1ECF0E06491EDEAF0E09A
:1011F0008491E82FF0E0EE0FFF1FE057FF4F85913D
:10120000949100E412E42FE030E0462F0E94400762
:10121000611571058105910529F06F5F7F4F8F4F33
:101220009F4F9F7095958795779567950E94BC0C09
:101230002DEC3CEC48EE51E40E94120C0E94840C10
:101240002B013C01F3E4F0937C0080917A008064F0
:1012500080937A0080917A0086FDFCCF809178009F
:10126000E0907900FE2CE82E0E94690480E00E9444
:10127000120580E491E00E94B305B301A2018FE55D
:1012800092E00E9481058BE491E00E94B30581E029
:101290000E9412058FE491E00E94B305C701B401DA
:1012A0000E94E30D6B01770FEE08FF08B701A6015E
:1012B0008FE592E00E9481058FE591E00E94B305E1
:1012C00080919D0190919E010A9690939E0180933A
:1012D0009D0167E58FEA91E00E94C40040919D0165
:1012E00050919E01052E000C660B770B8FEA91E062
:1012F0000E94810561E671E08FEA91E00E94260577
:101300006DE48FEA91E00E94C400B701A6018FEA64
:1013100091E00E94810561E671E08FEA91E00E9410
:10132000260580919D0190919E018436910554F08F
:1013300010929E0110929D0160ED77E080E090E0B8
:101340000E9485028FEA91E00E9429011816190671
:10135000E4F48FEA91E00E940701C197883091057B
:10136000A0F4FC01EA54F64F0C94190EBE095F0A72
:10137000660A6E0A750A7D0A840A8C0A61E089E0B1
:101380000E94D80181E08093A6010E94B702C0901C
:10139000A701D090A801E090A901F090AA019B01BB
:1013A000AC012C193D094E095F0969017A0138EB3E
:1013B000C3163BE0D306E104F10408F448C060938F
:1013C000A7017093A8018093A9019093AA010E949C
:1013D000690480E00E94120584E691E00E94B30552
:1013E0008091A601813009F09EC088E691E00E94BC
:1013F000B30580E791E00E94B3058091A50181309B
:1014000009F094C088E691E00E94B30581E00E9453
:10141000120585E791E00E94B3058091A401813017
:1014200009F087C088E691E00E94B30589E791E062
:101430000E94B3058091A301813009F07DC088E648
:1014400091E00E94B30585E391E00E94B3050E94FC
:10145000B702C090AB01D090AC01E090AD01F0902C
:10146000AE019B01AC012C193D094E095F096901D0
:101470007A0138EBC3163BE0D306E104F10408F42B
:101480002EC16093AB017093AC018093AD0190933A
:10149000AE010E94C302882359F0809152028B3022
:1014A00038F08D3008F44BC08551823008F478C094
:1014B000412C512C20EC622E2FE7722E5EC060E092
:1014C00089E00E94D8011092A6015FCF61E08AE016
:1014D0000E94D80181E08093A50157CF60E08AE0A7
:1014E0000E94D8011092A50150CF61E08BE00E94CC
:1014F000D80181E08093A40148CF60E08BE00E9496
:10150000D8011092A40141CF61E08CE00E94D80183
:1015100081E08093A30139CF60E08CE00E94D80184
:101520001092A30132CF8CE691E061CF8CE691E07E
:101530006BCF8CE691E078CF8CE691E082CF609122
:101540004D0270E090E080E00E94BC0C2DEC3CEC81
:101550004CEC5DE30E94710D6B017C0160914C02CB
:1015600070E090E080E00E94BC0C9B01AC01C701E0
:10157000B6010E94A10B2B013C010E94C3028823EB
:1015800041F0809152028C3009F4B5C0D8F48B3010
:1015900091F1C12CD12C80ECE82E8FE7F82E55C0AC
:1015A00060914C0270914D0276276727762790E074
:1015B00080E00E94BA0C2DEC3CEC4CEC5DE30E9408
:1015C000710DD9CF8551823020F710914E02612FD5
:1015D00070E0762F662766277F7780914F02682B11
:1015E00090E080E00E94BA0C2DEC3CEC4CEC5DE30A
:1015F0000E94710D9CC060914E0270E090E080E00E
:101600000E94BA0C6B017C0110914F0217FF0AC0B7
:10161000AC019B0160E070E080E89FEB0E94A00BB2
:101620006B017C011F70612F70E090E080E00E94F0
:10163000BC0C2DEC3CEC4CEC5DE30E94710DA70161
:1016400096010E94A10B6B017C010E94690480E05D
:101650000E9412058FE791E00E94B30522E0B701D6
:10166000A6018FE592E00E94B80587E891E00E940C
:10167000B30581E00E9412058AE891E00E94B3055B
:1016800022E0B301A2018FE592E00E94B8058FE548
:1016900091E00E94B30564E58FEA91E00E94C400E6
:1016A00022E0B701A6018FEA91E00E94B80561E649
:1016B00071E08FEA91E00E94260568E48FEA91E0EC
:1016C0000E94C40022E0B301A2018FEA91E00E94CF
:1016D000B80561E671E08FEA91E00E9426052114C9
:1016E000310409F448CD0E943501882309F443CD23
:1016F0000E94000040CD10914E02612F70E090E0FA
:1017000080E00E94BA0C6B017C0160914F026F7007
:1017100070E090E080E00E94BC0C2DEC3CEC4CECC6
:101720005DE30E94710DA70196010E94A10B6B0160
:101730007C0117FF8ACFF7FAF094F7F8F09485CF81
:101740005058BB27AA270E94B80B0C94320D0E9458
:10175000240D38F00E942B0D20F039F49F3F19F42E
:1017600026F40C94210D0EF4E095E7FB0C941B0D70
:10177000E92F0E94430D58F3BA17620773078407D5
:10178000950720F079F4A6F50C94650D0EF4E0951C
:101790000B2EBA2FA02D0B01B90190010C01CA012B
:1017A000A0011124FF27591B99F0593F50F4503ED6
:1017B00068F11A16F040A22F232F342F4427585FC8
:1017C000F3CF469537952795A795F0405395C9F7E0
:1017D0007EF41F16BA0B620B730B840BBAF0915098
:1017E000A1F0FF0FBB1F661F771F881FC2F70EC037
:1017F000BA0F621F731F841F48F48795779567950A
:10180000B795F7959E3F08F0B0CF9395880F08F0F5
:101810009927EE0F9795879508950E94F70C08F485
:1018200081E008950E94260C0C94320D0E942B0D2D
:1018300058F00E94240D40F029F45F3F29F00C94E9
:101840001B0D51110C94660D0C94210D0E94430D3B
:1018500068F39923B1F3552391F3951B550BBB27DF
:10186000AA2762177307840738F09F5F5F4F220F24
:10187000331F441FAA1FA9F335D00E2E3AF0E0E81B
:1018800032D091505040E695001CCAF72BD0FE2F65
:1018900029D0660F771F881FBB1F261737074807F9
:1018A000AB07B0E809F0BB0B802DBF01FF279358B1
:1018B0005F4F3AF09E3F510578F00C941B0D0C944D
:1018C000660D5F3FE4F3983ED4F386957795679570
:1018D000B795F7959F5FC9F7880F911D96958795E6
:1018E00097F90895E1E0660F771F881FBB1F621705
:1018F00073078407BA0720F0621B730B840BBA0BC3
:10190000EE1F88F7E09508950E948B0C6894B11142
:101910000C94660D08950E944B0D88F09F5798F027
:10192000B92F9927B751B0F0E1F0660F771F881FE4
:10193000991F1AF0BA95C9F714C0B13091F00E94FE
:10194000650DB1E008950C94650D672F782F8827F9
:10195000B85F39F0B93FCCF3869577956795B39525
:10196000D9F73EF490958095709561957F4F8F4F94
:101970009F4F0895E89409C097FB3EF49095809599
:10198000709561957F4F8F4F9F4F9923A9F0F92F45
:1019900096E9BB279395F695879577956795B795C3
:1019A000F111F8CFFAF4BB0F11F460FF1BC06F5FA9
:1019B0007F4F8F4F9F4F16C0882311F096E911C0BB
:1019C000772321F09EE8872F762F05C0662371F0DC
:1019D00096E8862F70E060E02AF09A95660F771FF0
:1019E000881FDAF7880F9695879597F90895990FCC
:1019F0000008550FAA0BE0E8FEEF16161706E807D9
:101A0000F907C0F012161306E407F50798F0621BF9
:101A1000730B840B950B39F40A2661F0232B242BCE
:101A2000252B21F408950A2609F4A140A6958FEFED
:101A3000811D811D089597F99F6780E870E060E03F
:101A400008959FEF80EC089500240A941616170657
:101A500018060906089500240A941216130614069F
:101A600005060895092E0394000C11F4882352F002
:101A7000BB0F40F4BF2B11F460FF04C06F5F7F4FBA
:101A80008F4F9F4F089557FD9058440F551F59F0A1
:101A90005F3F71F04795880F97FB991F61F09F3F5B
:101AA00079F087950895121613061406551FF2CF84
:101AB0004695F1DF08C0161617061806991FF1CFD4
:101AC00086957105610508940895E894BB276627FB
:101AD0007727CB0197F908950E94F70C08F48FEF50
:101AE00008950E94840D0C94320D0E94240D38F04C
:101AF0000E942B0D20F0952311F00C941B0D0C94DB
:101B0000210D11240C94660D0E94430D70F3959FD6
:101B1000C1F3950F50E0551F629FF001729FBB27E4
:101B2000F00DB11D639FAA27F00DB11DAA1F649F80
:101B30006627B00DA11D661F829F2227B00DA11D33
:101B4000621F739FB00DA11D621F839FA00D611DB9
:101B5000221F749F3327A00D611D231F849F600DDA
:101B6000211D822F762F6A2F11249F5750409AF003
:101B7000F1F088234AF0EE0FFF1FBB1F661F771F8F
:101B8000881F91505040A9F79E3F510580F00C945A
:101B90001B0D0C94660D5F3FE4F3983ED4F38695DD
:101BA00077956795B795F795E7959F5FC1F7FE2BFA
:101BB000880F911D9695879597F908950E94F70CC7
:101BC000880B990B089597FB072E16F4009407D005
:101BD00077FD09D00E941F0E07FC05D03EF49095BA
:101BE00081959F4F0895709561957F4F0895A1E26B
:101BF0001A2EAA1BBB1BFD010DC0AA1FBB1FEE1F87
:101C0000FF1FA217B307E407F50720F0A21BB30BD1
:101C1000E40BF50B661F771F881F991F1A9469F74D
:101C200060957095809590959B01AC01BD01CF01A9
:101C30000895EE0FFF1F0590F491E02D0994AA1B63
:101C4000BB1B51E107C0AA1FBB1FA617B70710F0A7
:101C5000A61BB70B881F991F5A95A9F780959095D9
:101C6000BC01CD010895F894FFCF000000006B0186
:101C7000CB00F800B801290107011B01000000009A
:101C80002005CB00CA03C9036E616E00696E660051
:101C90006F76660049727269676174696F6E00538E
:101CA00043414441205649455700576174657220AD
:101CB0004C203D20002A636D00536F696C204D6FEE
:101CC000697374757265203A0025000D0A0056315B
:101CD0003A004F4E20004F4646002056323A0056FA
:101CE000333A002050554D500054656D70203D2012
:0E1CF000002A430048756D69646974793A00F2
:107E0000112484B714BE81FFF0D085E080938100F7
:107E100082E08093C00088E18093C10086E0809377
:107E2000C20080E18093C4008EE0C9D0259A86E02C
:107E300020E33CEF91E0309385002093840096BBD3
:107E4000B09BFECF1D9AA8958150A9F7CC24DD24C4
:107E500088248394B5E0AB2EA1E19A2EF3E0BF2EE7
:107E6000A2D0813461F49FD0082FAFD0023811F036
:107E7000013811F484E001C083E08DD089C08234E0
:107E800011F484E103C0853419F485E0A6D080C0E4
:107E9000853579F488D0E82EFF2485D0082F10E0AE
:107EA000102F00270E291F29000F111F8ED06801E7
:107EB0006FC0863521F484E090D080E0DECF843638
:107EC00009F040C070D06FD0082F6DD080E0C81688
:107ED00080E7D80618F4F601B7BEE895C0E0D1E017
:107EE00062D089930C17E1F7F0E0CF16F0E7DF06D8
:107EF00018F0F601B7BEE89568D007B600FCFDCFD4
:107F0000A601A0E0B1E02C9130E011968C91119780
:107F100090E0982F8827822B932B1296FA010C0160
:107F200087BEE89511244E5F5F4FF1E0A038BF0790
:107F300051F7F601A7BEE89507B600FCFDCF97BE46
:107F4000E89526C08437B1F42ED02DD0F82E2BD052
:107F50003CD0F601EF2C8F010F5F1F4F84911BD097
:107F6000EA94F801C1F70894C11CD11CFA94CF0C13
:107F7000D11C0EC0853739F428D08EE10CD085E9AC
:107F80000AD08FE07ACF813511F488E018D01DD067
:107F900080E101D065CF982F8091C00085FFFCCF94
:107FA0009093C60008958091C00087FFFCCF809118
:107FB000C00084FD01C0A8958091C6000895E0E648
:107FC000F0E098E1908380830895EDDF803219F02E
:107FD00088E0F5DFFFCF84E1DECF1F93182FE3DFCA
:107FE0001150E9F7F2DF1F91089580E0E8DFEE27F6
:047FF000FF270994CA
:027FFE00040479
:00000001FF
